{
  "_format": "hh-sol-artifact-1",
  "contractName": "NFT",
  "sourceName": "contracts/NFT.sol",
  "abi": [
    {
      "inputs": [],
      "stateMutability": "nonpayable",
      "type": "constructor"
    },
    {
      "anonymous": false,
      "inputs": [
        {
          "indexed": true,
          "internalType": "address",
          "name": "owner",
          "type": "address"
        },
        {
          "indexed": true,
          "internalType": "address",
          "name": "approved",
          "type": "address"
        },
        {
          "indexed": true,
          "internalType": "uint256",
          "name": "tokenId",
          "type": "uint256"
        }
      ],
      "name": "Approval",
      "type": "event"
    },
    {
      "anonymous": false,
      "inputs": [
        {
          "indexed": true,
          "internalType": "address",
          "name": "owner",
          "type": "address"
        },
        {
          "indexed": true,
          "internalType": "address",
          "name": "operator",
          "type": "address"
        },
        {
          "indexed": false,
          "internalType": "bool",
          "name": "approved",
          "type": "bool"
        }
      ],
      "name": "ApprovalForAll",
      "type": "event"
    },
    {
      "anonymous": false,
      "inputs": [
        {
          "indexed": true,
          "internalType": "address",
          "name": "previousOwner",
          "type": "address"
        },
        {
          "indexed": true,
          "internalType": "address",
          "name": "newOwner",
          "type": "address"
        }
      ],
      "name": "OwnershipTransferred",
      "type": "event"
    },
    {
      "anonymous": false,
      "inputs": [
        {
          "indexed": true,
          "internalType": "address",
          "name": "from",
          "type": "address"
        },
        {
          "indexed": true,
          "internalType": "address",
          "name": "to",
          "type": "address"
        },
        {
          "indexed": true,
          "internalType": "uint256",
          "name": "tokenId",
          "type": "uint256"
        }
      ],
      "name": "Transfer",
      "type": "event"
    },
    {
      "inputs": [
        {
          "internalType": "address",
          "name": "to",
          "type": "address"
        },
        {
          "internalType": "uint256",
          "name": "tokenId",
          "type": "uint256"
        }
      ],
      "name": "approve",
      "outputs": [],
      "stateMutability": "nonpayable",
      "type": "function"
    },
    {
      "inputs": [
        {
          "internalType": "address",
          "name": "owner",
          "type": "address"
        }
      ],
      "name": "balanceOf",
      "outputs": [
        {
          "internalType": "uint256",
          "name": "",
          "type": "uint256"
        }
      ],
      "stateMutability": "view",
      "type": "function"
    },
    {
      "inputs": [
        {
          "internalType": "uint256",
          "name": "tokenId",
          "type": "uint256"
        }
      ],
      "name": "burn",
      "outputs": [],
      "stateMutability": "nonpayable",
      "type": "function"
    },
    {
      "inputs": [
        {
          "internalType": "uint256",
          "name": "tokenId",
          "type": "uint256"
        }
      ],
      "name": "getApproved",
      "outputs": [
        {
          "internalType": "address",
          "name": "",
          "type": "address"
        }
      ],
      "stateMutability": "view",
      "type": "function"
    },
    {
      "inputs": [
        {
          "internalType": "address",
          "name": "owner",
          "type": "address"
        },
        {
          "internalType": "address",
          "name": "operator",
          "type": "address"
        }
      ],
      "name": "isApprovedForAll",
      "outputs": [
        {
          "internalType": "bool",
          "name": "",
          "type": "bool"
        }
      ],
      "stateMutability": "view",
      "type": "function"
    },
    {
      "inputs": [],
      "name": "name",
      "outputs": [
        {
          "internalType": "string",
          "name": "",
          "type": "string"
        }
      ],
      "stateMutability": "view",
      "type": "function"
    },
    {
      "inputs": [],
      "name": "owner",
      "outputs": [
        {
          "internalType": "address",
          "name": "",
          "type": "address"
        }
      ],
      "stateMutability": "view",
      "type": "function"
    },
    {
      "inputs": [
        {
          "internalType": "uint256",
          "name": "tokenId",
          "type": "uint256"
        }
      ],
      "name": "ownerOf",
      "outputs": [
        {
          "internalType": "address",
          "name": "",
          "type": "address"
        }
      ],
      "stateMutability": "view",
      "type": "function"
    },
    {
      "inputs": [],
      "name": "renounceOwnership",
      "outputs": [],
      "stateMutability": "nonpayable",
      "type": "function"
    },
    {
      "inputs": [
        {
          "internalType": "address",
          "name": "to",
          "type": "address"
        },
        {
          "internalType": "uint256",
          "name": "tokenId",
          "type": "uint256"
        },
        {
          "internalType": "string",
          "name": "uri",
          "type": "string"
        }
      ],
      "name": "safeMint",
      "outputs": [],
      "stateMutability": "nonpayable",
      "type": "function"
    },
    {
      "inputs": [
        {
          "internalType": "address",
          "name": "from",
          "type": "address"
        },
        {
          "internalType": "address",
          "name": "to",
          "type": "address"
        },
        {
          "internalType": "uint256",
          "name": "tokenId",
          "type": "uint256"
        }
      ],
      "name": "safeTransferFrom",
      "outputs": [],
      "stateMutability": "nonpayable",
      "type": "function"
    },
    {
      "inputs": [
        {
          "internalType": "address",
          "name": "from",
          "type": "address"
        },
        {
          "internalType": "address",
          "name": "to",
          "type": "address"
        },
        {
          "internalType": "uint256",
          "name": "tokenId",
          "type": "uint256"
        },
        {
          "internalType": "bytes",
          "name": "data",
          "type": "bytes"
        }
      ],
      "name": "safeTransferFrom",
      "outputs": [],
      "stateMutability": "nonpayable",
      "type": "function"
    },
    {
      "inputs": [
        {
          "internalType": "address",
          "name": "operator",
          "type": "address"
        },
        {
          "internalType": "bool",
          "name": "approved",
          "type": "bool"
        }
      ],
      "name": "setApprovalForAll",
      "outputs": [],
      "stateMutability": "nonpayable",
      "type": "function"
    },
    {
      "inputs": [
        {
          "internalType": "bytes4",
          "name": "interfaceId",
          "type": "bytes4"
        }
      ],
      "name": "supportsInterface",
      "outputs": [
        {
          "internalType": "bool",
          "name": "",
          "type": "bool"
        }
      ],
      "stateMutability": "view",
      "type": "function"
    },
    {
      "inputs": [],
      "name": "symbol",
      "outputs": [
        {
          "internalType": "string",
          "name": "",
          "type": "string"
        }
      ],
      "stateMutability": "view",
      "type": "function"
    },
    {
      "inputs": [
        {
          "internalType": "uint256",
          "name": "tokenId",
          "type": "uint256"
        }
      ],
      "name": "tokenURI",
      "outputs": [
        {
          "internalType": "string",
          "name": "",
          "type": "string"
        }
      ],
      "stateMutability": "view",
      "type": "function"
    },
    {
      "inputs": [
        {
          "internalType": "address",
          "name": "from",
          "type": "address"
        },
        {
          "internalType": "address",
          "name": "to",
          "type": "address"
        },
        {
          "internalType": "uint256",
          "name": "tokenId",
          "type": "uint256"
        }
      ],
      "name": "transferFrom",
      "outputs": [],
      "stateMutability": "nonpayable",
      "type": "function"
    },
    {
      "inputs": [
        {
          "internalType": "address",
          "name": "newOwner",
          "type": "address"
        }
      ],
      "name": "transferOwnership",
      "outputs": [],
      "stateMutability": "nonpayable",
      "type": "function"
    }
  ],
  "bytecode": "0x60806040523480156200001157600080fd5b506040518060400160405280600381526020017f4e465400000000000000000000000000000000000000000000000000000000008152506040518060400160405280600381526020017f4d544b0000000000000000000000000000000000000000000000000000000000815250816000908051906020019062000096929190620001a6565b508060019080519060200190620000af929190620001a6565b505050620000d2620000c6620000d860201b60201c565b620000e060201b60201c565b620002bb565b600033905090565b6000600760009054906101000a900473ffffffffffffffffffffffffffffffffffffffff16905081600760006101000a81548173ffffffffffffffffffffffffffffffffffffffff021916908373ffffffffffffffffffffffffffffffffffffffff1602179055508173ffffffffffffffffffffffffffffffffffffffff168173ffffffffffffffffffffffffffffffffffffffff167f8be0079c531659141344cd1fd0a4f28419497f9722a3daafe3b4186f6b6457e060405160405180910390a35050565b828054620001b49062000285565b90600052602060002090601f016020900481019282620001d8576000855562000224565b82601f10620001f357805160ff191683800117855562000224565b8280016001018555821562000224579182015b828111156200022357825182559160200191906001019062000206565b5b50905062000233919062000237565b5090565b5b808211156200025257600081600090555060010162000238565b5090565b7f4e487b7100000000000000000000000000000000000000000000000000000000600052602260045260246000fd5b600060028204905060018216806200029e57607f821691505b60208210811415620002b557620002b462000256565b5b50919050565b6130a080620002cb6000396000f3fe608060405234801561001057600080fd5b50600436106101165760003560e01c8063715018a6116100a2578063b88d4fde11610071578063b88d4fde146102cb578063c87b56dd146102e7578063cd279c7c14610317578063e985e9c514610333578063f2fde38b1461036357610116565b8063715018a6146102695780638da5cb5b1461027357806395d89b4114610291578063a22cb465146102af57610116565b806323b872dd116100e957806323b872dd146101b557806342842e0e146101d157806342966c68146101ed5780636352211e1461020957806370a082311461023957610116565b806301ffc9a71461011b57806306fdde031461014b578063081812fc14610169578063095ea7b314610199575b600080fd5b61013560048036038101906101309190612039565b61037f565b6040516101429190612081565b60405180910390f35b610153610461565b6040516101609190612135565b60405180910390f35b610183600480360381019061017e919061218d565b6104f3565b60405161019091906121fb565b60405180910390f35b6101b360048036038101906101ae9190612242565b610539565b005b6101cf60048036038101906101ca9190612282565b610651565b005b6101eb60048036038101906101e69190612282565b6106b1565b005b6102076004803603810190610202919061218d565b6106d1565b005b610223600480360381019061021e919061218d565b61072d565b60405161023091906121fb565b60405180910390f35b610253600480360381019061024e91906122d5565b6107b4565b6040516102609190612311565b60405180910390f35b61027161086c565b005b61027b610880565b60405161028891906121fb565b60405180910390f35b6102996108aa565b6040516102a69190612135565b60405180910390f35b6102c960048036038101906102c49190612358565b61093c565b005b6102e560048036038101906102e091906124cd565b610952565b005b61030160048036038101906102fc919061218d565b6109b4565b60405161030e9190612135565b60405180910390f35b610331600480360381019061032c91906125f1565b6109c6565b005b61034d60048036038101906103489190612660565b6109e7565b60405161035a9190612081565b60405180910390f35b61037d600480360381019061037891906122d5565b610a7b565b005b60007f80ac58cd000000000000000000000000000000000000000000000000000000007bffffffffffffffffffffffffffffffffffffffffffffffffffffffff1916827bffffffffffffffffffffffffffffffffffffffffffffffffffffffff1916148061044a57507f5b5e139f000000000000000000000000000000000000000000000000000000007bffffffffffffffffffffffffffffffffffffffffffffffffffffffff1916827bffffffffffffffffffffffffffffffffffffffffffffffffffffffff1916145b8061045a575061045982610aff565b5b9050919050565b606060008054610470906126cf565b80601f016020809104026020016040519081016040528092919081815260200182805461049c906126cf565b80156104e95780601f106104be576101008083540402835291602001916104e9565b820191906000526020600020905b8154815290600101906020018083116104cc57829003601f168201915b5050505050905090565b60006104fe82610b69565b6004600083815260200190815260200160002060009054906101000a900473ffffffffffffffffffffffffffffffffffffffff169050919050565b60006105448261072d565b90508073ffffffffffffffffffffffffffffffffffffffff168373ffffffffffffffffffffffffffffffffffffffff1614156105b5576040517f08c379a00000000000000000000000000000000000000000000000000000000081526004016105ac90612773565b60405180910390fd5b8073ffffffffffffffffffffffffffffffffffffffff166105d4610bb4565b73ffffffffffffffffffffffffffffffffffffffff1614806106035750610602816105fd610bb4565b6109e7565b5b610642576040517f08c379a000000000000000000000000000000000000000000000000000000000815260040161063990612805565b60405180910390fd5b61064c8383610bbc565b505050565b61066261065c610bb4565b82610c75565b6106a1576040517f08c379a000000000000000000000000000000000000000000000000000000000815260040161069890612897565b60405180910390fd5b6106ac838383610d0a565b505050565b6106cc83838360405180602001604052806000815250610952565b505050565b6106e26106dc610bb4565b82610c75565b610721576040517f08c379a000000000000000000000000000000000000000000000000000000000815260040161071890612897565b60405180910390fd5b61072a81611004565b50565b60008061073983611010565b9050600073ffffffffffffffffffffffffffffffffffffffff168173ffffffffffffffffffffffffffffffffffffffff1614156107ab576040517f08c379a00000000000000000000000000000000000000000000000000000000081526004016107a290612903565b60405180910390fd5b80915050919050565b60008073ffffffffffffffffffffffffffffffffffffffff168273ffffffffffffffffffffffffffffffffffffffff161415610825576040517f08c379a000000000000000000000000000000000000000000000000000000000815260040161081c90612995565b60405180910390fd5b600360008373ffffffffffffffffffffffffffffffffffffffff1673ffffffffffffffffffffffffffffffffffffffff168152602001908152602001600020549050919050565b61087461104d565b61087e60006110cb565b565b6000600760009054906101000a900473ffffffffffffffffffffffffffffffffffffffff16905090565b6060600180546108b9906126cf565b80601f01602080910402602001604051908101604052809291908181526020018280546108e5906126cf565b80156109325780601f1061090757610100808354040283529160200191610932565b820191906000526020600020905b81548152906001019060200180831161091557829003601f168201915b5050505050905090565b61094e610947610bb4565b8383611191565b5050565b61096361095d610bb4565b83610c75565b6109a2576040517f08c379a000000000000000000000000000000000000000000000000000000000815260040161099990612897565b60405180910390fd5b6109ae848484846112fe565b50505050565b60606109bf8261135a565b9050919050565b6109ce61104d565b6109d8838361146d565b6109e2828261148b565b505050565b6000600560008473ffffffffffffffffffffffffffffffffffffffff1673ffffffffffffffffffffffffffffffffffffffff16815260200190815260200160002060008373ffffffffffffffffffffffffffffffffffffffff1673ffffffffffffffffffffffffffffffffffffffff16815260200190815260200160002060009054906101000a900460ff16905092915050565b610a8361104d565b600073ffffffffffffffffffffffffffffffffffffffff168173ffffffffffffffffffffffffffffffffffffffff161415610af3576040517f08c379a0000000000000000000000000000000000000000000000000000000008152600401610aea90612a27565b60405180910390fd5b610afc816110cb565b50565b60007f01ffc9a7000000000000000000000000000000000000000000000000000000007bffffffffffffffffffffffffffffffffffffffffffffffffffffffff1916827bffffffffffffffffffffffffffffffffffffffffffffffffffffffff1916149050919050565b610b72816114ff565b610bb1576040517f08c379a0000000000000000000000000000000000000000000000000000000008152600401610ba890612903565b60405180910390fd5b50565b600033905090565b816004600083815260200190815260200160002060006101000a81548173ffffffffffffffffffffffffffffffffffffffff021916908373ffffffffffffffffffffffffffffffffffffffff160217905550808273ffffffffffffffffffffffffffffffffffffffff16610c2f8361072d565b73ffffffffffffffffffffffffffffffffffffffff167f8c5be1e5ebec7d5bd14f71427d1e84f3dd0314c0f7b2291e5b200ac8c7c3b92560405160405180910390a45050565b600080610c818361072d565b90508073ffffffffffffffffffffffffffffffffffffffff168473ffffffffffffffffffffffffffffffffffffffff161480610cc35750610cc281856109e7565b5b80610d0157508373ffffffffffffffffffffffffffffffffffffffff16610ce9846104f3565b73ffffffffffffffffffffffffffffffffffffffff16145b91505092915050565b8273ffffffffffffffffffffffffffffffffffffffff16610d2a8261072d565b73ffffffffffffffffffffffffffffffffffffffff1614610d80576040517f08c379a0000000000000000000000000000000000000000000000000000000008152600401610d7790612ab9565b60405180910390fd5b600073ffffffffffffffffffffffffffffffffffffffff168273ffffffffffffffffffffffffffffffffffffffff161415610df0576040517f08c379a0000000000000000000000000000000000000000000000000000000008152600401610de790612b4b565b60405180910390fd5b610dfd8383836001611540565b8273ffffffffffffffffffffffffffffffffffffffff16610e1d8261072d565b73ffffffffffffffffffffffffffffffffffffffff1614610e73576040517f08c379a0000000000000000000000000000000000000000000000000000000008152600401610e6a90612ab9565b60405180910390fd5b6004600082815260200190815260200160002060006101000a81549073ffffffffffffffffffffffffffffffffffffffff02191690556001600360008573ffffffffffffffffffffffffffffffffffffffff1673ffffffffffffffffffffffffffffffffffffffff168152602001908152602001600020600082825403925050819055506001600360008473ffffffffffffffffffffffffffffffffffffffff1673ffffffffffffffffffffffffffffffffffffffff16815260200190815260200160002060008282540192505081905550816002600083815260200190815260200160002060006101000a81548173ffffffffffffffffffffffffffffffffffffffff021916908373ffffffffffffffffffffffffffffffffffffffff160217905550808273ffffffffffffffffffffffffffffffffffffffff168473ffffffffffffffffffffffffffffffffffffffff167fddf252ad1be2c89b69c2b068fc378daa952ba7f163c4a11628f55a4df523b3ef60405160405180910390a4610fff8383836001611666565b505050565b61100d8161166c565b50565b60006002600083815260200190815260200160002060009054906101000a900473ffffffffffffffffffffffffffffffffffffffff169050919050565b611055610bb4565b73ffffffffffffffffffffffffffffffffffffffff16611073610880565b73ffffffffffffffffffffffffffffffffffffffff16146110c9576040517f08c379a00000000000000000000000000000000000000000000000000000000081526004016110c090612bb7565b60405180910390fd5b565b6000600760009054906101000a900473ffffffffffffffffffffffffffffffffffffffff16905081600760006101000a81548173ffffffffffffffffffffffffffffffffffffffff021916908373ffffffffffffffffffffffffffffffffffffffff1602179055508173ffffffffffffffffffffffffffffffffffffffff168173ffffffffffffffffffffffffffffffffffffffff167f8be0079c531659141344cd1fd0a4f28419497f9722a3daafe3b4186f6b6457e060405160405180910390a35050565b8173ffffffffffffffffffffffffffffffffffffffff168373ffffffffffffffffffffffffffffffffffffffff161415611200576040517f08c379a00000000000000000000000000000000000000000000000000000000081526004016111f790612c23565b60405180910390fd5b80600560008573ffffffffffffffffffffffffffffffffffffffff1673ffffffffffffffffffffffffffffffffffffffff16815260200190815260200160002060008473ffffffffffffffffffffffffffffffffffffffff1673ffffffffffffffffffffffffffffffffffffffff16815260200190815260200160002060006101000a81548160ff0219169083151502179055508173ffffffffffffffffffffffffffffffffffffffff168373ffffffffffffffffffffffffffffffffffffffff167f17307eab39ab6107e8899845ad3d59bd9653f200f220920489ca2b5937696c31836040516112f19190612081565b60405180910390a3505050565b611309848484610d0a565b611315848484846116bf565b611354576040517f08c379a000000000000000000000000000000000000000000000000000000000815260040161134b90612cb5565b60405180910390fd5b50505050565b606061136582610b69565b6000600660008481526020019081526020016000208054611385906126cf565b80601f01602080910402602001604051908101604052809291908181526020018280546113b1906126cf565b80156113fe5780601f106113d3576101008083540402835291602001916113fe565b820191906000526020600020905b8154815290600101906020018083116113e157829003601f168201915b50505050509050600061140f611856565b9050600081511415611425578192505050611468565b60008251111561145a578082604051602001611442929190612d11565b60405160208183030381529060405292505050611468565b6114638461186d565b925050505b919050565b6114878282604051806020016040528060008152506118d5565b5050565b611494826114ff565b6114d3576040517f08c379a00000000000000000000000000000000000000000000000000000000081526004016114ca90612da7565b60405180910390fd5b806006600084815260200190815260200160002090805190602001906114fa929190611eea565b505050565b60008073ffffffffffffffffffffffffffffffffffffffff1661152183611010565b73ffffffffffffffffffffffffffffffffffffffff1614159050919050565b600181111561166057600073ffffffffffffffffffffffffffffffffffffffff168473ffffffffffffffffffffffffffffffffffffffff16146115d45780600360008673ffffffffffffffffffffffffffffffffffffffff1673ffffffffffffffffffffffffffffffffffffffff16815260200190815260200160002060008282546115cc9190612df6565b925050819055505b600073ffffffffffffffffffffffffffffffffffffffff168373ffffffffffffffffffffffffffffffffffffffff161461165f5780600360008573ffffffffffffffffffffffffffffffffffffffff1673ffffffffffffffffffffffffffffffffffffffff16815260200190815260200160002060008282546116579190612e2a565b925050819055505b5b50505050565b50505050565b61167581611930565b6000600660008381526020019081526020016000208054611695906126cf565b9050146116bc576006600082815260200190815260200160002060006116bb9190611f70565b5b50565b60006116e08473ffffffffffffffffffffffffffffffffffffffff16611a7e565b15611849578373ffffffffffffffffffffffffffffffffffffffff1663150b7a02611709610bb4565b8786866040518563ffffffff1660e01b815260040161172b9493929190612ed5565b602060405180830381600087803b15801561174557600080fd5b505af192505050801561177657506040513d601f19601f820116820180604052508101906117739190612f36565b60015b6117f9573d80600081146117a6576040519150601f19603f3d011682016040523d82523d6000602084013e6117ab565b606091505b506000815114156117f1576040517f08c379a00000000000000000000000000000000000000000000000000000000081526004016117e890612cb5565b60405180910390fd5b805181602001fd5b63150b7a0260e01b7bffffffffffffffffffffffffffffffffffffffffffffffffffffffff1916817bffffffffffffffffffffffffffffffffffffffffffffffffffffffff19161491505061184e565b600190505b949350505050565b606060405180602001604052806000815250905090565b606061187882610b69565b6000611882611856565b905060008151116118a257604051806020016040528060008152506118cd565b806118ac84611aa1565b6040516020016118bd929190612d11565b6040516020818303038152906040525b915050919050565b6118df8383611b79565b6118ec60008484846116bf565b61192b576040517f08c379a000000000000000000000000000000000000000000000000000000000815260040161192290612cb5565b60405180910390fd5b505050565b600061193b8261072d565b905061194b816000846001611540565b6119548261072d565b90506004600083815260200190815260200160002060006101000a81549073ffffffffffffffffffffffffffffffffffffffff02191690556001600360008373ffffffffffffffffffffffffffffffffffffffff1673ffffffffffffffffffffffffffffffffffffffff168152602001908152602001600020600082825403925050819055506002600083815260200190815260200160002060006101000a81549073ffffffffffffffffffffffffffffffffffffffff021916905581600073ffffffffffffffffffffffffffffffffffffffff168273ffffffffffffffffffffffffffffffffffffffff167fddf252ad1be2c89b69c2b068fc378daa952ba7f163c4a11628f55a4df523b3ef60405160405180910390a4611a7a816000846001611666565b5050565b6000808273ffffffffffffffffffffffffffffffffffffffff163b119050919050565b606060006001611ab084611d97565b01905060008167ffffffffffffffff811115611acf57611ace6123a2565b5b6040519080825280601f01601f191660200182016040528015611b015781602001600182028036833780820191505090505b509050600082602001820190505b600115611b6e578080600190039150507f3031323334353637383961626364656600000000000000000000000000000000600a86061a8153600a8581611b5857611b57612f63565b5b0494506000851415611b6957611b6e565b611b0f565b819350505050919050565b600073ffffffffffffffffffffffffffffffffffffffff168273ffffffffffffffffffffffffffffffffffffffff161415611be9576040517f08c379a0000000000000000000000000000000000000000000000000000000008152600401611be090612fde565b60405180910390fd5b611bf2816114ff565b15611c32576040517f08c379a0000000000000000000000000000000000000000000000000000000008152600401611c299061304a565b60405180910390fd5b611c40600083836001611540565b611c49816114ff565b15611c89576040517f08c379a0000000000000000000000000000000000000000000000000000000008152600401611c809061304a565b60405180910390fd5b6001600360008473ffffffffffffffffffffffffffffffffffffffff1673ffffffffffffffffffffffffffffffffffffffff16815260200190815260200160002060008282540192505081905550816002600083815260200190815260200160002060006101000a81548173ffffffffffffffffffffffffffffffffffffffff021916908373ffffffffffffffffffffffffffffffffffffffff160217905550808273ffffffffffffffffffffffffffffffffffffffff16600073ffffffffffffffffffffffffffffffffffffffff167fddf252ad1be2c89b69c2b068fc378daa952ba7f163c4a11628f55a4df523b3ef60405160405180910390a4611d93600083836001611666565b5050565b600080600090507a184f03e93ff9f4daa797ed6e38ed64bf6a1f0100000000000000008310611df5577a184f03e93ff9f4daa797ed6e38ed64bf6a1f0100000000000000008381611deb57611dea612f63565b5b0492506040810190505b6d04ee2d6d415b85acef81000000008310611e32576d04ee2d6d415b85acef81000000008381611e2857611e27612f63565b5b0492506020810190505b662386f26fc100008310611e6157662386f26fc100008381611e5757611e56612f63565b5b0492506010810190505b6305f5e1008310611e8a576305f5e1008381611e8057611e7f612f63565b5b0492506008810190505b6127108310611eaf576127108381611ea557611ea4612f63565b5b0492506004810190505b60648310611ed25760648381611ec857611ec7612f63565b5b0492506002810190505b600a8310611ee1576001810190505b80915050919050565b828054611ef6906126cf565b90600052602060002090601f016020900481019282611f185760008555611f5f565b82601f10611f3157805160ff1916838001178555611f5f565b82800160010185558215611f5f579182015b82811115611f5e578251825591602001919060010190611f43565b5b509050611f6c9190611fb0565b5090565b508054611f7c906126cf565b6000825580601f10611f8e5750611fad565b601f016020900490600052602060002090810190611fac9190611fb0565b5b50565b5b80821115611fc9576000816000905550600101611fb1565b5090565b6000604051905090565b600080fd5b600080fd5b60007fffffffff0000000000000000000000000000000000000000000000000000000082169050919050565b61201681611fe1565b811461202157600080fd5b50565b6000813590506120338161200d565b92915050565b60006020828403121561204f5761204e611fd7565b5b600061205d84828501612024565b91505092915050565b60008115159050919050565b61207b81612066565b82525050565b60006020820190506120966000830184612072565b92915050565b600081519050919050565b600082825260208201905092915050565b60005b838110156120d65780820151818401526020810190506120bb565b838111156120e5576000848401525b50505050565b6000601f19601f8301169050919050565b60006121078261209c565b61211181856120a7565b93506121218185602086016120b8565b61212a816120eb565b840191505092915050565b6000602082019050818103600083015261214f81846120fc565b905092915050565b6000819050919050565b61216a81612157565b811461217557600080fd5b50565b60008135905061218781612161565b92915050565b6000602082840312156121a3576121a2611fd7565b5b60006121b184828501612178565b91505092915050565b600073ffffffffffffffffffffffffffffffffffffffff82169050919050565b60006121e5826121ba565b9050919050565b6121f5816121da565b82525050565b600060208201905061221060008301846121ec565b92915050565b61221f816121da565b811461222a57600080fd5b50565b60008135905061223c81612216565b92915050565b6000806040838503121561225957612258611fd7565b5b60006122678582860161222d565b925050602061227885828601612178565b9150509250929050565b60008060006060848603121561229b5761229a611fd7565b5b60006122a98682870161222d565b93505060206122ba8682870161222d565b92505060406122cb86828701612178565b9150509250925092565b6000602082840312156122eb576122ea611fd7565b5b60006122f98482850161222d565b91505092915050565b61230b81612157565b82525050565b60006020820190506123266000830184612302565b92915050565b61233581612066565b811461234057600080fd5b50565b6000813590506123528161232c565b92915050565b6000806040838503121561236f5761236e611fd7565b5b600061237d8582860161222d565b925050602061238e85828601612343565b9150509250929050565b600080fd5b600080fd5b7f4e487b7100000000000000000000000000000000000000000000000000000000600052604160045260246000fd5b6123da826120eb565b810181811067ffffffffffffffff821117156123f9576123f86123a2565b5b80604052505050565b600061240c611fcd565b905061241882826123d1565b919050565b600067ffffffffffffffff821115612438576124376123a2565b5b612441826120eb565b9050602081019050919050565b82818337600083830152505050565b600061247061246b8461241d565b612402565b90508281526020810184848401111561248c5761248b61239d565b5b61249784828561244e565b509392505050565b600082601f8301126124b4576124b3612398565b5b81356124c484826020860161245d565b91505092915050565b600080600080608085870312156124e7576124e6611fd7565b5b60006124f58782880161222d565b94505060206125068782880161222d565b935050604061251787828801612178565b925050606085013567ffffffffffffffff81111561253857612537611fdc565b5b6125448782880161249f565b91505092959194509250565b600067ffffffffffffffff82111561256b5761256a6123a2565b5b612574826120eb565b9050602081019050919050565b600061259461258f84612550565b612402565b9050828152602081018484840111156125b0576125af61239d565b5b6125bb84828561244e565b509392505050565b600082601f8301126125d8576125d7612398565b5b81356125e8848260208601612581565b91505092915050565b60008060006060848603121561260a57612609611fd7565b5b60006126188682870161222d565b935050602061262986828701612178565b925050604084013567ffffffffffffffff81111561264a57612649611fdc565b5b612656868287016125c3565b9150509250925092565b6000806040838503121561267757612676611fd7565b5b60006126858582860161222d565b92505060206126968582860161222d565b9150509250929050565b7f4e487b7100000000000000000000000000000000000000000000000000000000600052602260045260246000fd5b600060028204905060018216806126e757607f821691505b602082108114156126fb576126fa6126a0565b5b50919050565b7f4552433732313a20617070726f76616c20746f2063757272656e74206f776e6560008201527f7200000000000000000000000000000000000000000000000000000000000000602082015250565b600061275d6021836120a7565b915061276882612701565b604082019050919050565b6000602082019050818103600083015261278c81612750565b9050919050565b7f4552433732313a20617070726f76652063616c6c6572206973206e6f7420746f60008201527f6b656e206f776e6572206f7220617070726f76656420666f7220616c6c000000602082015250565b60006127ef603d836120a7565b91506127fa82612793565b604082019050919050565b6000602082019050818103600083015261281e816127e2565b9050919050565b7f4552433732313a2063616c6c6572206973206e6f7420746f6b656e206f776e6560008201527f72206f7220617070726f76656400000000000000000000000000000000000000602082015250565b6000612881602d836120a7565b915061288c82612825565b604082019050919050565b600060208201905081810360008301526128b081612874565b9050919050565b7f4552433732313a20696e76616c696420746f6b656e2049440000000000000000600082015250565b60006128ed6018836120a7565b91506128f8826128b7565b602082019050919050565b6000602082019050818103600083015261291c816128e0565b9050919050565b7f4552433732313a2061646472657373207a65726f206973206e6f74206120766160008201527f6c6964206f776e65720000000000000000000000000000000000000000000000602082015250565b600061297f6029836120a7565b915061298a82612923565b604082019050919050565b600060208201905081810360008301526129ae81612972565b9050919050565b7f4f776e61626c653a206e6577206f776e657220697320746865207a65726f206160008201527f6464726573730000000000000000000000000000000000000000000000000000602082015250565b6000612a116026836120a7565b9150612a1c826129b5565b604082019050919050565b60006020820190508181036000830152612a4081612a04565b9050919050565b7f4552433732313a207472616e736665722066726f6d20696e636f72726563742060008201527f6f776e6572000000000000000000000000000000000000000000000000000000602082015250565b6000612aa36025836120a7565b9150612aae82612a47565b604082019050919050565b60006020820190508181036000830152612ad281612a96565b9050919050565b7f4552433732313a207472616e7366657220746f20746865207a65726f2061646460008201527f7265737300000000000000000000000000000000000000000000000000000000602082015250565b6000612b356024836120a7565b9150612b4082612ad9565b604082019050919050565b60006020820190508181036000830152612b6481612b28565b9050919050565b7f4f776e61626c653a2063616c6c6572206973206e6f7420746865206f776e6572600082015250565b6000612ba16020836120a7565b9150612bac82612b6b565b602082019050919050565b60006020820190508181036000830152612bd081612b94565b9050919050565b7f4552433732313a20617070726f766520746f2063616c6c657200000000000000600082015250565b6000612c0d6019836120a7565b9150612c1882612bd7565b602082019050919050565b60006020820190508181036000830152612c3c81612c00565b9050919050565b7f4552433732313a207472616e7366657220746f206e6f6e20455243373231526560008201527f63656976657220696d706c656d656e7465720000000000000000000000000000602082015250565b6000612c9f6032836120a7565b9150612caa82612c43565b604082019050919050565b60006020820190508181036000830152612cce81612c92565b9050919050565b600081905092915050565b6000612ceb8261209c565b612cf58185612cd5565b9350612d058185602086016120b8565b80840191505092915050565b6000612d1d8285612ce0565b9150612d298284612ce0565b91508190509392505050565b7f45524337323155524953746f726167653a2055524920736574206f66206e6f6e60008201527f6578697374656e7420746f6b656e000000000000000000000000000000000000602082015250565b6000612d91602e836120a7565b9150612d9c82612d35565b604082019050919050565b60006020820190508181036000830152612dc081612d84565b9050919050565b7f4e487b7100000000000000000000000000000000000000000000000000000000600052601160045260246000fd5b6000612e0182612157565b9150612e0c83612157565b925082821015612e1f57612e1e612dc7565b5b828203905092915050565b6000612e3582612157565b9150612e4083612157565b9250827fffffffffffffffffffffffffffffffffffffffffffffffffffffffffffffffff03821115612e7557612e74612dc7565b5b828201905092915050565b600081519050919050565b600082825260208201905092915050565b6000612ea782612e80565b612eb18185612e8b565b9350612ec18185602086016120b8565b612eca816120eb565b840191505092915050565b6000608082019050612eea60008301876121ec565b612ef760208301866121ec565b612f046040830185612302565b8181036060830152612f168184612e9c565b905095945050505050565b600081519050612f308161200d565b92915050565b600060208284031215612f4c57612f4b611fd7565b5b6000612f5a84828501612f21565b91505092915050565b7f4e487b7100000000000000000000000000000000000000000000000000000000600052601260045260246000fd5b7f4552433732313a206d696e7420746f20746865207a65726f2061646472657373600082015250565b6000612fc86020836120a7565b9150612fd382612f92565b602082019050919050565b60006020820190508181036000830152612ff781612fbb565b9050919050565b7f4552433732313a20746f6b656e20616c7265616479206d696e74656400000000600082015250565b6000613034601c836120a7565b915061303f82612ffe565b602082019050919050565b6000602082019050818103600083015261306381613027565b905091905056fea26469706673582212202cebda94decc3ee9995b19cceaaef81409d4421962c2af11dabe22c2e921269964736f6c63430008090033",
  "linkReferences": {},
  "deployedLinkReferences": {}
}